:100000000C942A000C943F000C943F000C943F0089
:100010000C943F000C943F000C943F000C943F0064
:100020000C943F000C943F000C943F000C943F0054
:100030000C943F000C943F000C943F000C943F0044
:100040000C943F000C943F000C943F000C943F0034
:100050000C943F0011241FBECFE5D8E0DEBFCDBF1A
:1000600010E0A0E6B0E0E0EAF2E002C005900D92F8
:10007000A23BB107D9F70E94A8000C944E010C9442
:10008000000088BB9098919A80E197E20197F1F780
:10009000919880EA9FE00197F1F708958FEF87BB71
:1000A00081BB81E00E9441008CE30E94410086E018
:1000B0000E9441008EE00E94410085E08A95F1F7A0
:1000C000089588BB909A919A80E197E20197F1F7A1
:1000D000919880EA9FE00197F1F70895EF92FF92DF
:1000E0001F93CF93DF93EC0110E080EAE82E8FE0BE
:1000F000F82E06C00E946100C7010197F1F71F5F4B
:10010000FE01E10FF11D80818823A1F7DF91CF91DE
:100110001F91FF90EF9008950F931F93CF93DF935C
:100120008B01880F880F880F805C0E944100C0E01F
:10013000D0E0F801EC0FFD1F80810E946100219644
:10014000C830D105B1F7DF91CF911F910F9108957C
:100150001F93DF93CF93CDB7DEB7C054D0400FB617
:10016000F894DEBF0FBECDBF0E944E00DE01119697
:10017000EAEAF0E088E001900D928150E1F7DE01BB
:100180001996E2EAF0E088E001900D928150E1F7E3
:10019000DE015196EAE9F0E088E001900D9281508D
:1001A000E1F7DE015996E2E9F0E088E001900D9276
:1001B0008150E1F7DE019196EAE8F0E088E00190F5
:1001C0000D928150E1F7DE019996E2E8F0E088E0D7
:1001D00001900D928150E1F7DE01D196EAE7F0E05F
:1001E00088E001900D928150E1F7DE01D996E2E7B7
:1001F000F0E088E001900D928150E1F7BE016F5F61
:100200007F4F0E948C0081E0BE01675F7F4F0E949C
:100210008C0082E0BE016F5E7F4F0E948C0083E005
:10022000BE01675E7F4F0E948C0084E0BE016F5D5F
:100230007F4F0E948C0085E0BE01675D7F4F0E946A
:100240008C0086E0BE016F5C7F4F0E948C0087E0CF
:10025000BE01675C7F4F0E948C0080E80E944100D5
:1002600080E690E00E946E0080EC0E94410010E069
:10027000812F0E94610080E20E9461001F5F1830A0
:10028000B9F780E090E0C05CDF4F0FB6F894DEBFB6
:100290000FBECDBFCF91DF911F910895F894FFCF8E
:1002A000437573746F6D2063686172616374657206
:1002B0007300001F110A0404040600001F1B15111F
:1002C0001F000A0A1F11110E040401030509090B7E
:1002D0001B180103071F1F070301040E0E0E1F004A
:1002E0000400041F11111F1F1F1F04040E1F1504FB
:0202F000040EFA
:00000001FF
